{
  "contractName": "NFTtrading",
  "abi": [
    {
      "constant": true,
      "inputs": [],
      "name": "user_cnt",
      "outputs": [
        {
          "name": "",
          "type": "uint256"
        }
      ],
      "payable": false,
      "stateMutability": "view",
      "type": "function"
    },
    {
      "constant": true,
      "inputs": [
        {
          "name": "",
          "type": "uint256"
        }
      ],
      "name": "users",
      "outputs": [
        {
          "name": "user_addr",
          "type": "address"
        },
        {
          "name": "assets_cnt",
          "type": "uint256"
        }
      ],
      "payable": false,
      "stateMutability": "view",
      "type": "function"
    },
    {
      "constant": true,
      "inputs": [],
      "name": "txn_cnt",
      "outputs": [
        {
          "name": "",
          "type": "uint256"
        }
      ],
      "payable": false,
      "stateMutability": "view",
      "type": "function"
    },
    {
      "constant": true,
      "inputs": [],
      "name": "NFT_cnt",
      "outputs": [
        {
          "name": "",
          "type": "uint256"
        }
      ],
      "payable": false,
      "stateMutability": "view",
      "type": "function"
    },
    {
      "constant": true,
      "inputs": [
        {
          "name": "",
          "type": "uint256"
        }
      ],
      "name": "NFT_items",
      "outputs": [
        {
          "name": "NFT_id",
          "type": "uint256"
        },
        {
          "name": "owner",
          "type": "address"
        },
        {
          "name": "on_sale",
          "type": "bool"
        },
        {
          "name": "txn_id",
          "type": "uint256"
        },
        {
          "name": "img_src",
          "type": "string"
        }
      ],
      "payable": false,
      "stateMutability": "view",
      "type": "function"
    },
    {
      "constant": true,
      "inputs": [
        {
          "name": "",
          "type": "uint256"
        }
      ],
      "name": "txn_records",
      "outputs": [
        {
          "name": "NFT_id",
          "type": "uint256"
        },
        {
          "name": "price",
          "type": "uint256"
        },
        {
          "name": "seller",
          "type": "address"
        },
        {
          "name": "buyer",
          "type": "address"
        }
      ],
      "payable": false,
      "stateMutability": "view",
      "type": "function"
    },
    {
      "constant": false,
      "inputs": [
        {
          "name": "usr_addr",
          "type": "address"
        }
      ],
      "name": "user_register",
      "outputs": [
        {
          "name": "",
          "type": "string"
        }
      ],
      "payable": false,
      "stateMutability": "nonpayable",
      "type": "function"
    },
    {
      "constant": false,
      "inputs": [
        {
          "name": "_img_src",
          "type": "string"
        }
      ],
      "name": "upload_NFT",
      "outputs": [],
      "payable": false,
      "stateMutability": "nonpayable",
      "type": "function"
    },
    {
      "constant": false,
      "inputs": [
        {
          "name": "asset_id",
          "type": "uint256"
        },
        {
          "name": "price",
          "type": "uint256"
        }
      ],
      "name": "sale",
      "outputs": [],
      "payable": false,
      "stateMutability": "nonpayable",
      "type": "function"
    },
    {
      "constant": false,
      "inputs": [
        {
          "name": "NFT_id",
          "type": "uint256"
        }
      ],
      "name": "purchase",
      "outputs": [],
      "payable": true,
      "stateMutability": "payable",
      "type": "function"
    },
    {
      "constant": true,
      "inputs": [
        {
          "name": "usr_id",
          "type": "uint256"
        },
        {
          "name": "asset_id",
          "type": "uint256"
        }
      ],
      "name": "show_asset",
      "outputs": [
        {
          "name": "NFT_id",
          "type": "uint256"
        },
        {
          "name": "owner",
          "type": "address"
        },
        {
          "name": "on_sale",
          "type": "bool"
        },
        {
          "name": "txn_id",
          "type": "uint256"
        },
        {
          "name": "img_src",
          "type": "string"
        }
      ],
      "payable": false,
      "stateMutability": "view",
      "type": "function"
    }
  ],
  "bytecode": "0x6080604052600080556000600255600060045534801561001e57600080fd5b506114c78061002e6000396000f3006080604052600436106100af576000357c0100000000000000000000000000000000000000000000000000000000900463ffffffff16806315c950b2146100b45780631c35f962146100df578063365b98b21461011657806345fcf4121461018a5780634b14e10814610246578063641827a314610271578063736f54d21461036d578063ab86265914610398578063b24e8e221461048a578063c950d42e146104f3578063efef39a1146105a1575b600080fd5b3480156100c057600080fd5b506100c96105c1565b6040518082815260200191505060405180910390f35b3480156100eb57600080fd5b5061011460048036038101908080359060200190929190803590602001909291905050506105c7565b005b34801561012257600080fd5b5061014160048036038101908080359060200190929190505050610852565b604051808373ffffffffffffffffffffffffffffffffffffffff1673ffffffffffffffffffffffffffffffffffffffff1681526020018281526020019250505060405180910390f35b34801561019657600080fd5b506101cb600480360381019080803573ffffffffffffffffffffffffffffffffffffffff169060200190929190505050610896565b6040518080602001828103825283818151815260200191508051906020019080838360005b8381101561020b5780820151818401526020810190506101f0565b50505050905090810190601f1680156102385780820380516001836020036101000a031916815260200191505b509250505060405180910390f35b34801561025257600080fd5b5061025b610a42565b6040518082815260200191505060405180910390f35b34801561027d57600080fd5b506102a66004803603810190808035906020019092919080359060200190929190505050610a48565b604051808681526020018573ffffffffffffffffffffffffffffffffffffffff1673ffffffffffffffffffffffffffffffffffffffff1681526020018415151515815260200183815260200180602001828103825283818151815260200191508051906020019080838360005b8381101561032e578082015181840152602081019050610313565b50505050905090810190601f16801561035b5780820380516001836020036101000a031916815260200191505b50965050505050505060405180910390f35b34801561037957600080fd5b50610382610c62565b6040518082815260200191505060405180910390f35b3480156103a457600080fd5b506103c360048036038101908080359060200190929190505050610c68565b604051808681526020018573ffffffffffffffffffffffffffffffffffffffff1673ffffffffffffffffffffffffffffffffffffffff1681526020018415151515815260200183815260200180602001828103825283818151815260200191508051906020019080838360005b8381101561044b578082015181840152602081019050610430565b50505050905090810190601f1680156104785780820380516001836020036101000a031916815260200191505b50965050505050505060405180910390f35b34801561049657600080fd5b506104f1600480360381019080803590602001908201803590602001908080601f0160208091040260200160405190810160405280939291908181526020018383808284378201915050505050509192919290505050610d63565b005b3480156104ff57600080fd5b5061051e60048036038101908080359060200190929190505050610f66565b604051808581526020018481526020018373ffffffffffffffffffffffffffffffffffffffff1673ffffffffffffffffffffffffffffffffffffffff1681526020018273ffffffffffffffffffffffffffffffffffffffff1673ffffffffffffffffffffffffffffffffffffffff16815260200194505050505060405180910390f35b6105bf60048036038101908080359060200190929190505050610fd6565b005b60005481565b600080600191505b6000548211151561084c573373ffffffffffffffffffffffffffffffffffffffff166001600084815260200190815260200160002060000160009054906101000a900473ffffffffffffffffffffffffffffffffffffffff1673ffffffffffffffffffffffffffffffffffffffff16141561083f57600160008381526020019081526020016000206001015484111580156106b257506003600060016000858152602001908152602001600020600201600087815260200190815260200160002054815260200190815260200160002060010160149054906101000a900460ff16155b15156106bd57600080fd5b60036000600160008581526020019081526020016000206002016000878152602001908152602001600020548152602001908152602001600020905060046000815480929190600101919050555060806040519081016040528060045481526020018481526020013373ffffffffffffffffffffffffffffffffffffffff168152602001600073ffffffffffffffffffffffffffffffffffffffff16815250600560006004548152602001908152602001600020600082015181600001556020820151816001015560408201518160020160006101000a81548173ffffffffffffffffffffffffffffffffffffffff021916908373ffffffffffffffffffffffffffffffffffffffff16021790555060608201518160030160006101000a81548173ffffffffffffffffffffffffffffffffffffffff021916908373ffffffffffffffffffffffffffffffffffffffff16021790555090505060018160010160146101000a81548160ff02191690831515021790555060045481600201819055505b81806001019250506105cf565b50505050565b60016020528060005260406000206000915090508060000160009054906101000a900473ffffffffffffffffffffffffffffffffffffffff16908060010154905082565b60606000600190505b6000548111151561095e578273ffffffffffffffffffffffffffffffffffffffff166001600083815260200190815260200160002060000160009054906101000a900473ffffffffffffffffffffffffffffffffffffffff1673ffffffffffffffffffffffffffffffffffffffff161415610951576040805190810160405280600481526020017f6661696c000000000000000000000000000000000000000000000000000000008152509150610a3c565b808060010191505061089f565b600080815480929190600101919050555060408051908101604052808473ffffffffffffffffffffffffffffffffffffffff1681526020016000815250600160008054815260200190815260200160002060008201518160000160006101000a81548173ffffffffffffffffffffffffffffffffffffffff021916908373ffffffffffffffffffffffffffffffffffffffff160217905550602082015181600101559050506040805190810160405280600781526020017f737563636565640000000000000000000000000000000000000000000000000081525091505b50919050565b60045481565b600080600080606060036000600160008a815260200190815260200160002060020160008981526020019081526020016000205481526020019081526020016000206000015460036000600160008b815260200190815260200160002060020160008a815260200190815260200160002054815260200190815260200160002060010160009054906101000a900473ffffffffffffffffffffffffffffffffffffffff1660036000600160008c815260200190815260200160002060020160008b815260200190815260200160002054815260200190815260200160002060010160149054906101000a900460ff1660036000600160008d815260200190815260200160002060020160008c81526020019081526020016000205481526020019081526020016000206002015460036000600160008e815260200190815260200160002060020160008d8152602001908152602001600020548152602001908152602001600020600301808054600181600116156101000203166002900480601f016020809104026020016040519081016040528092919081815260200182805460018160011615610100020316600290048015610c475780601f10610c1c57610100808354040283529160200191610c47565b820191906000526020600020905b815481529060010190602001808311610c2a57829003601f168201915b50505050509050945094509450945094509295509295909350565b60025481565b60036020528060005260406000206000915090508060000154908060010160009054906101000a900473ffffffffffffffffffffffffffffffffffffffff16908060010160149054906101000a900460ff1690806002015490806003018054600181600116156101000203166002900480601f016020809104026020016040519081016040528092919081815260200182805460018160011615610100020316600290048015610d595780601f10610d2e57610100808354040283529160200191610d59565b820191906000526020600020905b815481529060010190602001808311610d3c57829003601f168201915b5050505050905085565b600060026000815480929190600101919050555060a06040519081016040528060025481526020013373ffffffffffffffffffffffffffffffffffffffff16815260200160001515815260200160008152602001838152506003600060025481526020019081526020016000206000820151816000015560208201518160010160006101000a81548173ffffffffffffffffffffffffffffffffffffffff021916908373ffffffffffffffffffffffffffffffffffffffff16021790555060408201518160010160146101000a81548160ff021916908315150217905550606082015181600201556080820151816003019080519060200190610e679291906113f6565b50905050600190505b60005481111515610f61573373ffffffffffffffffffffffffffffffffffffffff166001600083815260200190815260200160002060000160009054906101000a900473ffffffffffffffffffffffffffffffffffffffff1673ffffffffffffffffffffffffffffffffffffffff161415610f545760016000828152602001908152602001600020600101600081548092919060010191905055506002546001600083815260200190815260200160002060020160006001600085815260200190815260200160002060010154815260200190815260200160002081905550610f62565b8080600101915050610e70565b5b5050565b60056020528060005260406000206000915090508060000154908060010154908060020160009054906101000a900473ffffffffffffffffffffffffffffffffffffffff16908060030160009054906101000a900473ffffffffffffffffffffffffffffffffffffffff16905084565b600080600080846000108015610fee57506002548511155b1515610ff957600080fd5b6003600086815260200190815260200160002093508360010160149054906101000a900460ff16151561102b57600080fd5b600560008560020154815260200190815260200160002092508260010154341015151561105757600080fd5b8260020160009054906101000a900473ffffffffffffffffffffffffffffffffffffffff1673ffffffffffffffffffffffffffffffffffffffff166108fc349081150290604051600060405180830381858888f193505050501580156110c1573d6000803e3d6000fd5b50338460010160006101000a81548173ffffffffffffffffffffffffffffffffffffffff021916908373ffffffffffffffffffffffffffffffffffffffff16021790555060008460010160146101000a81548160ff021916908315150217905550338360030160006101000a81548173ffffffffffffffffffffffffffffffffffffffff021916908373ffffffffffffffffffffffffffffffffffffffff160217905550600191505b600054821115156113ee578260020160009054906101000a900473ffffffffffffffffffffffffffffffffffffffff1673ffffffffffffffffffffffffffffffffffffffff166001600084815260200190815260200160002060000160009054906101000a900473ffffffffffffffffffffffffffffffffffffffff1673ffffffffffffffffffffffffffffffffffffffff16141561130a57600190505b60016000838152602001908152602001600020600101548111151561130957846001600084815260200190815260200160002060020160008381526020019081526020016000205414156112fc575b6001600083815260200190815260200160002060010154600182011115156112d4576001600083815260200190815260200160002060020160006001830181526020019081526020016000205460016000848152602001908152602001600020600201600083815260200190815260200160002081905550611257565b6001600083815260200190815260200160002060010160008154809291906001900391905055505b8080600101915050611208565b5b3373ffffffffffffffffffffffffffffffffffffffff166001600084815260200190815260200160002060000160009054906101000a900473ffffffffffffffffffffffffffffffffffffffff1673ffffffffffffffffffffffffffffffffffffffff1614156113e15784600160008481526020019081526020016000206002016000600160008681526020019081526020016000206001015481526020019081526020016000208190555060016000838152602001908152602001600020600101600081548092919060010191905055506113ef565b818060010192505061116a565b5b5050505050565b828054600181600116156101000203166002900490600052602060002090601f016020900481019282601f1061143757805160ff1916838001178555611465565b82800160010185558215611465579182015b82811115611464578251825591602001919060010190611449565b5b5090506114729190611476565b5090565b61149891905b8082111561149457600081600090555060010161147c565b5090565b905600a165627a7a7230582003be8ebe869d89185c010e2f475b8262d7c7c35d7fb60f329fb5a017e35ed48e0029",
  "source": "pragma solidity ^0.4.0;\r\n\r\ncontract NFTtrading {\r\n    \r\n    uint public user_cnt = 0; // record the users\r\n    mapping(uint => user) public users;\r\n    \r\n    uint public NFT_cnt = 0; // record the NFT items\r\n    mapping(uint => NFTobj) public NFT_items;\r\n    \r\n    uint public txn_cnt = 0; // record the transaction information\r\n    mapping(uint => NFTtxn) public txn_records;\r\n\r\n    \r\n    struct user {\r\n        address user_addr;\r\n        uint assets_cnt;\r\n        mapping(uint => uint) assets;\r\n    }\r\n    \r\n    struct NFTobj {\r\n        uint NFT_id;\r\n        address owner;\r\n        bool on_sale;\r\n        uint txn_id;\r\n        string img_src;\r\n    }\r\n    \r\n    struct NFTtxn {\r\n        uint NFT_id;\r\n        uint price;\r\n        address seller;\r\n        address buyer;\r\n    }\r\n    \r\n    function user_register(address usr_addr) public returns(string) {\r\n        for (uint i=1; i<=user_cnt; i++) { // no need to register\r\n            if (users[i].user_addr == usr_addr) return \"fail\";\r\n        }\r\n        \r\n        user_cnt++;\r\n        users[user_cnt] = user(usr_addr, 0); // add to user list\r\n        \r\n        return \"succeed\";\r\n    }\r\n    \r\n    function upload_NFT(string _img_src) public {\r\n        // user_register(msg.sender);\r\n        \r\n        NFT_cnt++;\r\n        NFT_items[NFT_cnt] = NFTobj(NFT_cnt, msg.sender, false, 0, _img_src); // add to NFT list\r\n        \r\n        for (uint i=1; i<=user_cnt; i++) {\r\n            if (users[i].user_addr == msg.sender) {\r\n                users[i].assets_cnt++;\r\n                users[i].assets[users[i].assets_cnt] = NFT_cnt;\r\n                return;\r\n            }\r\n        }\r\n    }\r\n    \r\n    function sale(uint asset_id, uint price) public {\r\n        for (uint i=1; i<=user_cnt; i++) {\r\n            if (users[i].user_addr == msg.sender) {\r\n                require (asset_id <= users[i].assets_cnt && !NFT_items[users[i].assets[asset_id]].on_sale); // check existence and sale state\r\n                NFTobj storage item = NFT_items[users[i].assets[asset_id]];\r\n                \r\n                txn_cnt++;\r\n                txn_records[txn_cnt] = NFTtxn(txn_cnt, price, msg.sender, 0); // add to txn list\r\n                \r\n                item.on_sale = true;\r\n                item.txn_id = txn_cnt;\r\n            }\r\n        }\r\n    }\r\n    \r\n    function purchase(uint NFT_id) public payable {\r\n        require(0 < NFT_id && NFT_id <= NFT_cnt);\r\n        NFTobj storage item = NFT_items[NFT_id]; // find the NFT item\r\n        require(item.on_sale);\r\n        \r\n        NFTtxn storage txn = txn_records[item.txn_id]; // find the transaction\r\n        require(msg.value >= txn.price);\r\n        \r\n        // user_register(msg.sender);\r\n        txn.seller.transfer(msg.value); // do the deal\r\n        item.owner = msg.sender;\r\n        item.on_sale = false;\r\n        txn.buyer = msg.sender;\r\n        \r\n        for (uint i=1; i<=user_cnt; i++) {\r\n            \r\n            if (users[i].user_addr == txn.seller) { // delete from seller\r\n                for (uint j=1; j<=users[i].assets_cnt; j++) {\r\n                    if (users[i].assets[j] == NFT_id) {\r\n                        while (j+1 <= users[i].assets_cnt) {\r\n                            users[i].assets[j] = users[i].assets[j+1];\r\n                        }\r\n                        users[i].assets_cnt--;\r\n                    }\r\n                }\r\n            }\r\n            \r\n            if (users[i].user_addr == msg.sender) { // add to buyer\r\n                users[i].assets[users[i].assets_cnt] = NFT_id;\r\n                users[i].assets_cnt++;\r\n                return;\r\n            }\r\n        }\r\n    }\r\n    \r\n    // used to debug\r\n    function show_asset(uint usr_id, uint asset_id) public view returns(uint NFT_id, address owner, bool on_sale, uint txn_id, string img_src) {\r\n        return (NFT_items[users[usr_id].assets[asset_id]].NFT_id,\r\n                NFT_items[users[usr_id].assets[asset_id]].owner,\r\n                NFT_items[users[usr_id].assets[asset_id]].on_sale,\r\n                NFT_items[users[usr_id].assets[asset_id]].txn_id,\r\n                NFT_items[users[usr_id].assets[asset_id]].img_src);\r\n    }\r\n    \r\n}",
  "sourcePath": "C:\\Users\\Lenovo\\Desktop\\finalhw\\NFTtrading\\contracts\\NFTtrading.sol",
  "compiler": {
    "name": "solc",
    "version": "0.4.26+commit.4563c3fc.Emscripten.clang"
  },
  "schemaVersion": "3.4.3",
  "updatedAt": "2021-11-05T08:10:33.974Z",
  "devdoc": {
    "methods": {}
  },
  "userdoc": {
    "methods": {}
  }
}